:020000040800F2
:100000004004002001010008F5050008FD02000879
:10001000F105000849010008EB0C00080000000091
:10002000000000000000000000000000950700082C
:100030004D010008000000007D06000819010008BD
:100040001B0100081B0100081B0100081B01000820
:100050001B0100081B0100081B0100081B01000810
:100060001B0100081B0100081B0100081B01000800
:100070001B0100081B0100081B0100081B010008F0
:100080001B0100081B0100081B0100081B010008E0
:100090001B0100081B0100081B0100081B010008D0
:1000A0001B0100081B0100081B0100081B010008C0
:1000B0001B0100081B0100081B0100081B010008B0
:1000C0001B0100081B0100081B0100081B010008A0
:1000D0001B0100081B0100081B010008690A000839
:1000E0001B0100081B0100081B010008DFF80CD0F1
:1000F00000F018F800480047210E000840040020D6
:100100000648804706480047FEE7FEE7FEE7FEE7B1
:10011000FEE7FEE7FEE7FEE7FEE7FEE781080008F0
:10012000ED000008064C074D06E0E06840F00103D2
:1001300094E8070098471034AC42F6D3FFF7DAFF93
:100140007C0E00089C0E000800BFFEE770472DE9FA
:10015000F04102460025002600200023002400274D
:1001600091F803C00CF00F0591F803C00CF0100CCF
:10017000BCF1000F03D091F802C04CEA050591F8DC
:1001800000C0BCF1000F31D0146800202BE04FF00C
:10019000010C0CFA00F3B1F800C00CEA03069E4211
:1001A00020D183004FF00F0C0CFA03F7BC4305FA83
:1001B00003FC4CEA040491F803C0BCF1280F06D1FB
:1001C0004FF0010C0CFA00FCC2F814C00AE091F8E0
:1001D00003C0BCF1480F05D14FF0010C0CFA00FC34
:1001E000C2F810C0401C0828D1D31460B1F800C078
:1001F000BCF1FF0F34DD546800202EE000F1080C44
:100200004FF0010808FA0CF3B1F800C00CEA03063D
:100210009E4221D183004FF00F0C0CFA03F7BC4330
:1002200005FA03FC4CEA040491F803C0BCF1280F62
:1002300005D100F1080C08FA0CF8C2F8148091F806
:1002400003C0BCF1480F07D100F1080C4FF00108C2
:1002500008FA0CF8C2F81080401C0828CED354606D
:10026000BDE8F081F0B50A460023002400210025F6
:1002700000F00046B6F1004F02D11D4EF16901E0D9
:100280001B4E7168C0F3034583B200F44016B6F507
:10029000401F08D121F07061154E766826F0706617
:1002A000134F7E6012E000F48016B6F5801F06D171
:1002B000032606FA05F4A14341F0706106E0460DFD
:1002C000360103FA06F6B14341F0706122B1460DE2
:1002D000360103FA06F6314300F00046B6F1004F4E
:1002E00002D1034EF16101E0014E7160F0BD0000EA
:1002F00000000140416170470161704700BFFEE7A7
:1003000021B1028842F48062028004E002884FF644
:10031000FF331A400280704770B502460024002562
:1003200000230020958A138B1B0445EA030626F060
:100330007F4404EA01068E4201D1012000E0002042
:1003400070BD21B1028842F00102028004E00288FF
:100350004FF6FE731A400280704721B1028842F4C2
:100360008072028004E002884FF6FF631A40028028
:10037000704721B1028842F40072028004E00288D2
:100380004FF6FF531A40028070470CB5024600201A
:1003900000230193009300920B0F019321F07F4102
:1003A000019B1BB1009B1433009303E0090C009BDD
:1003B00018330093009B1B680B400BB1012000E039
:1003C00000200CBD2DE9F04385B004460D46002603
:1003D000B1460427DFF8CC80A6884FF6C0700640EF
:1003E000684600F06DF9DDF808802F48B8FBF0F0A2
:1003F0001FFA80F946EA0906A68020884FF6FE71AA
:100400000840208000262949286888420CD828689E
:100410004000B8FBF0F087B2042F00DA04273E4317
:1004200009F10100208427E0E8884BF6FF7188423B
:1004300006D1286800EB4000B8FBF0F087B209E075
:10044000286800EBC00101EB0010B8FBF0F087B2A8
:1004500047F48047C7F30B0008B947F0010747F49A
:10046000004006434FF4967009FB00F04FF47A7198
:1004700090FBF1F0401C2084A683208840F001000E
:10048000208026884FF6F5300640A8886989084301
:1004900006432680A88929890843208105B0BDE844
:1004A000F083000000127A0040420F00A086010095
:1004B0000146088AC0B2704712B141F0010102E062
:1004C0004FF6FE73194001827047018270470000A9
:1004D00000B585B00121084600F0E2F80121480589
:1004E00000F0CEF84020ADF8100001208DF8120089
:1004F0001C208DF8130004A91848FFF728FE80205F
:10050000ADF8100001208DF812001C208DF81300AA
:1005100004A91248FFF71BFE4FF48060ADF80A00F3
:100520000001ADF80C0044F6206000904BF6FF701F
:10053000ADF806000020ADF804005C20ADF808001E
:1005400001210748FFF7FDFE69460548FFF73AFF1E
:1005500001210348FFF7D4FE05B000BD000C0140A7
:100560000054004010B510210748FFF7C5FE2021B8
:100570000548FFF7C1FEC82000F0C8FB062103486C
:1005800000F0AAFA10BD000000080140160000208B
:1005900008B50121042000F083F80121082000F0B3
:1005A0007FF80120ADF8000003208DF80200142030
:1005B0008DF8030069460C48FFF7C9FD01210A4880
:1005C000FFF798FE2020ADF8000003208DF8020010
:1005D00014208DF8030069460448FFF7B8FD202178
:1005E0000248FFF787FE08BD000C014000080140EB
:1005F00000BFFEE77047000070B5002100230F2206
:10060000C47804B3154C246804F4E064C4F5E064D1
:10061000210AC1F10403CA40447804FA03F1847842
:100620001440214309010E4C0678A155047804F0CA
:100630001F050124AC4005786D11AD0005F1E025E2
:10064000C5F8004109E0047804F01F050124AC401E
:10065000044D0678761145F8264070BD0CED00E09B
:1006600000E400E080E100E002490143024A116039
:10067000704700000000FA050CED00E07047000034
:1006800029B1064AD2690243044BDA6104E0034A05
:10069000D2698243014BDA617047000000100240CA
:1006A00029B1064A92690243044B9A6104E0034A65
:1006B00092698243014B9A6170470000001002402A
:1006C00030B500210022002400232D4D6D6805F077
:1006D0000C0121B1042905D0082923D105E0294DB9
:1006E000056022E0274D05601FE0254D6D6805F48B
:1006F0007012234D6D6805F48034022505EB92429B
:100700001CB9214D554305600BE01D4D6D6805F486
:1007100000351DB11C4D5543056002E0194D554390
:10072000056002E0174D056000BF00BF144D6D6805
:1007300005F0F0010909154D6B5C0568DD40456069
:100740000F4D6D6805F4E061090A104D6B5C45685A
:10075000DD4085600A4D6D6805F46051C90A0B4D96
:100760006B5C4568DD40C560054D6D6805F4404132
:10077000890B074D6B5CC568B5FBF3F5056130BDB2
:100780000010024000127A0000093D000000002025
:1007900010000020704710B500F002F810BD0000F6
:1007A0000CB50020019000903348006840F4803080
:1007B0003149086000BF3048006800F40030009004
:1007C0000198401C0190009818B90198B0F5A06FED
:1007D000F1D12948006800F4003010B101200090E8
:1007E00001E0002000900098012843D123480068D0
:1007F00040F01000214908600846006820F003001E
:1008000008600846006840F0020008601A48406826
:10081000194948600846406848600846406840F406
:10082000806048600846406820F47C1048600846B4
:10083000406840F4E81048600846006840F0807066
:10084000086000BF0C48006800F000700028F9D074
:100850000948406820F0030007494860084640689E
:1008600040F00200486000BF0348406800F00C0000
:100870000828F9D10CBD0000001002400020024001
:1008800010B51348006840F001001149086008469F
:100890004068104908400E494860084600680E4903
:1008A00008400B4908600846006820F48020086072
:1008B0000846406820F4FE0048604FF41F0088603E
:1008C000FFF769FF4FF000600449086010BD0000A9
:1008D000001002400000FFF8FFFFF6FE08ED00E008
:1008E00000B587B001210420FFF7DAFE012188035B
:1008F000FFF7D6FE4FF48060ADF8180001208DF8A8
:100900001A0004208DF81B0006A92448FFF71FFCDD
:100910004FF40070ADF8180001208DF81A001C206B
:100920008DF81B0006A91D48FFF711FC4FF4E130BC
:1009300002900020ADF814000C20ADF81200002049
:10094000ADF81000ADF80E00ADF80C0002A9144887
:1009500000F056F94FF4C060FFF786FE25208DF8B1
:10096000040001208DF805008DF806008DF80700C1
:1009700001A8FFF741FE012240F22551084800F08E
:100980001AF9012240F22661054800F014F901210C
:10099000034800F0CDF807B000BD0000000801409A
:1009A0000038014000B587B001210820FFF778FE2C
:1009B00001218804FFF764FE4FF40060ADF81800D1
:1009C00003208DF81A0004208DF81B0006A9244886
:1009D000FFF7BDFB4FF48060ADF8180003208DF8E1
:1009E0001A0018208DF81B0006A91D48FFF7AFFB61
:1009F0004FF4165002900020ADF814000C20ADF812
:100A000012000020ADF81000ADF80E00ADF80C009B
:100A100002A9144800F0F4F84FF4C060FFF724FE78
:100A200025208DF8040001208DF805008DF80600C2
:100A30008DF8070001A8FFF7DFFD012240F22551E4
:100A4000084800F0B8F8012240F22661054800F09D
:100A5000B2F80121034800F06BF807B000BD0000B8
:100A6000000C01400048004010B540F225511748E5
:100A700000F077F8012814D140F22551134800F016
:100A800048F8124800F028F90446022C09D100F079
:100A90004BF90F490880012240F226610B4800F013
:100AA0008AF840F22661094800F05BF801280CD171
:100AB00040F22661054800F02CF8054800880549F9
:100AC00008810621034800F007F810BD00480040E7
:100AD000140000202E00002070B505460E460024AC
:100AE00008E035F8140000F0B3F9601CC4B2B44259
:100AF00000D103E035F814000028F2D100BF70BD2A
:100B000001F40072B2F5007F00D100BFCA43028039
:100B1000704710B50022002340F66A14A14200D1AC
:100B200000BF0A1201249440A3B2DC43048010BD2C
:100B300021B1828942F40052828104E082894DF61B
:100B4000FF731A408281704702460020B1F5007F92
:100B500000D100BF13880B400BB1012000E0002042
:100B6000704770B50246002400230025002040F69F
:100B70006A16B14200D100BFC1F3421501F01F0354
:100B8000012606FA03F3012D02D19689334006E0CF
:100B9000022D02D1168A334001E0968A33400C12AE
:100BA000012606FA04F41688344013B10CB1012072
:100BB00000E0002070BDF0B50346002400260025AB
:100BC000002040F66A17B94200D100BF1846C1F3B1
:100BD000421401F01F06012707FA06F5012C01D186
:100BE0000C3004E0022C01D1103000E014301AB1B6
:100BF00007682F43076002E00768AF430760F0BD56
:100C00002DE9F04786B005460E460024A24600BFF7
:100C1000A1460027B08900B100BF2F462C8A4CF6B0
:100C2000FF700440F08804432C82AC894EF6F31028
:100C30000440B08831890843718908430443AC817A
:100C4000AC8A4FF6FF400440B0890443AC8201A84F
:100C5000FFF736FD1F48874202D1DDF810A001E002
:100C6000DDF80CA0A88900F4004040B10AEBCA00EE
:100C700000EB0A1031684900B0FBF1F807E00AEB1D
:100C8000CA0000EB0A1031688900B0FBF1F864205B
:100C9000B8FBF0F004012009642101FB1089A88948
:100CA00000F4004040B1322000EBC900B0FBF1F08D
:100CB00000F00700044308E0322000EB0910642133
:100CC000B0FBF1F000F00F0004432C8106B0BDE84A
:100CD000F08700000038014001468888C0F3080012
:100CE0007047C1F308028280704700BFFEE702E050
:100CF00008C8121F08C1002AFAD1704770470020A7
:100D000001E001C1121F002AFBD1704706E041F645
:100D10004C5100BF0A1EA1F10101FBD1021EA0F13E
:100D20000100F4D17047000070B5002500260121B4
:100D30003848FFF712FB00BF37493648FFF7ECFA97
:100D40000028F9D0002246213248FFF7B5FB00BF4A
:100D500032493048FFF7E0FA0028F9D021212D4828
:100D6000FFF7B3FB00BF2D49891C2A48FFF7D4FACF
:100D70000028F8D001212748FFF7FBFA4FF448700C
:100D8000FFF7C4FF00BF4FF400312248FFF7FDFA20
:100D90000028F8D101211F48FFF7DFFA00BF1E49E4
:100DA0001C48FFF7B9FA0028F9D00122462119485A
:100DB000FFF782FB00BF1849491C1648FFF7ACFA41
:100DC0000028F8D000BF14493F311248FFF7A4FAB9
:100DD0000028F8D00F48FFF76BFB054600BF0E490F
:100DE0003F310C48FFF798FA0028F8D00948FFF780
:100DF0005FFB064601210748FFF7BBFA00BF4FF42F
:100E000000310448FFF7C1FA0028F8D146EA05246A
:100E1000204670BD0054004001000300820007001E
:100E200000BF01210846FFF73BFC01210748FFF7FF
:100E300019FA00BFFFF754FDFFF7B4FDFFF748FBB9
:100E4000FFF7A6FBFFF78EFB00BFFEE700023000B6
:100E500010B50446A1B20848FFF743FF00BF402188
:100E60000548FFF771FE0128F9D140210248FFF73C
:100E700047FE204610BD0000004800409C0E0008C0
:100E8000000000203C000000EE0C0008D80E000816
:100E90003C00002004040000FE0C000800000000DC
:100EA00001020304010203040607080902040608FC
:100EB0000000C000000002001A003C004000C10019
:100EC000C100C100000000000000FF00FF003C0066
:080ED00000000000000000001A
:04000005080000ED02
:00000001FF
