:020000040800F2
:100000004004002001010008290600082903000817
:1000100025060008750100081F0D000800000000FB
:10002000000000000000000000000000C9070008F8
:100030007901000800000000B1060008190100085D
:100040001B0100081B0100081B0100081B01000820
:100050001B0100081B0100081B0100081B01000810
:100060001B0100081B0100081B0100081B01000800
:100070001B0100081B0100081B0100081B010008F0
:100080001B0100081B0100081B0100081B010008E0
:100090001B0100081B0100081B0100081B010008D0
:1000A0001B0100081B0100081B0100081B010008C0
:1000B0001B0100081B0100081B0100081B010008B0
:1000C0001B0100081B0100081B0100081B010008A0
:1000D0001B0100081B0100081B0100089D0A000805
:1000E0001B0100081B0100081B010008DFF80CD0F1
:1000F00000F02EF800480047DD0F00084004002003
:100100000648804706480047FEE7FEE7FEE7FEE7B1
:10011000FEE7FEE7FEE7FEE7FEE7FEE7B5080008BC
:10012000ED00000830B50B460146002020220124D6
:1001300009E021FA02F59D4205D303FA02F5491BB5
:1001400004FA02F52844151EA2F10102F1DC30BDCB
:10015000064C074D06E0E06840F0010394E8070014
:1001600098471034AC42F6D3FFF7C4FF7010000874
:100170009010000800BFFEE770472DE9F0410246ED
:1001800000250026002000230024002791F803C04A
:100190000CF00F0591F803C00CF0100CBCF1000F2F
:1001A00003D091F802C04CEA050591F800C0BCF1FB
:1001B000000F31D0146800202BE04FF0010C0CFA36
:1001C00000F3B1F800C00CEA03069E4220D1830080
:1001D0004FF00F0C0CFA03F7BC4305FA03FC4CEA92
:1001E000040491F803C0BCF1280F06D14FF0010CB4
:1001F0000CFA00FCC2F814C00AE091F803C0BCF18C
:10020000480F05D14FF0010C0CFA00FCC2F810C0E9
:10021000401C0828D1D31460B1F800C0BCF1FF0F16
:1002200034DD546800202EE000F1080C4FF0010886
:1002300008FA0CF3B1F800C00CEA03069E4221D183
:1002400083004FF00F0C0CFA03F7BC4305FA03FCD4
:100250004CEA040491F803C0BCF1280F05D100F169
:10026000080C08FA0CF8C2F8148091F803C0BCF12D
:10027000480F07D100F1080C4FF0010808FA0CF8FC
:10028000C2F81080401C0828CED35460BDE8F0812D
:10029000F0B50A46002300240021002500F00046A6
:1002A000B6F1004F02D11D4EF16901E01B4E71689D
:1002B000C0F3034583B200F44016B6F5401F08D1E1
:1002C00021F07061154E766826F07066134F7E60DF
:1002D00012E000F48016B6F5801F06D1032606FA58
:1002E00005F4A14341F0706106E0460D360103FAC2
:1002F00006F6B14341F0706122B1460D360103FAB2
:1003000006F6314300F00046B6F1004F02D1034E2D
:10031000F16101E0014E7160F0BD0000000001409C
:10032000416170470161704700BFFEE721B102885B
:1003300042F48062028004E002884FF6FF331A40E4
:100340000280704770B5024600240025002300207B
:10035000958A138B1B0445EA030626F07F4404EAC2
:1003600001068E4201D1012000E0002070BD21B1C4
:10037000028842F00102028004E002884FF6FE7318
:100380001A400280704721B1028842F480720280D4
:1003900004E002884FF6FF631A400280704721B1E3
:1003A000028842F40072028004E002884FF6FF5394
:1003B0001A40028070470CB50246002000230193CA
:1003C000009300920B0F019321F07F41019B1BB121
:1003D000009B1433009303E0090C009B1833009337
:1003E000009B1B680B400BB1012000E000200CBDFE
:1003F0002DE9F04385B004460D460026B14604279A
:10040000DFF8CC80A6884FF6C0700640684600F042
:1004100071F9DDF808802F48B8FBF0F01FFA80F979
:1004200046EA0906A68020884FF6FE710840208023
:1004300000262949286888420CD828684000B8FB63
:10044000F0F087B2042F00DA04273E4309F10100DF
:10045000208427E0E8884BF6FF71884206D128689F
:1004600000EB4000B8FBF0F087B209E0286800EB31
:10047000C00101EB0010B8FBF0F087B247F48047F1
:10048000C7F30B0008B947F0010747F400400643E3
:100490004FF4967009FB00F04FF47A7190FBF1F085
:1004A000401C2084A683208840F0010020802688FC
:1004B0004FF6F5300640A888698908430643268030
:1004C000A88929890843208105B0BDE8F083000090
:1004D00000127A0040420F00A08601000146088AFF
:1004E000C0B2704712B141F0010102E04FF6FE7355
:1004F00019400182704701827047000000B585B045
:100500000121042000F0E6F80121082000F0E2F8C3
:100510000121084600F0DEF80121880300F0DAF836
:100520000121480500F0C6F84020ADF81000012078
:100530008DF812001C208DF8130004A91848FFF74D
:100540001CFE8020ADF8100001208DF812001C2048
:100550008DF8130004A91248FFF70FFE4FF48060D6
:10056000ADF80A000001ADF80C0044F620600090E0
:100570004BF6FF70ADF806000020ADF804005C20DB
:10058000ADF8080001210748FFF7F1FE694605486C
:10059000FFF72EFF01210348FFF7C8FE05B000BD9D
:1005A000000C01400054004010B510210748FFF72F
:1005B000B9FE20210548FFF7B5FEC82000F07CFCFD
:1005C0000621034800F0A2FA10BD00000008014017
:1005D0001800002008B50120ADF8000003208DF8B8
:1005E000020014208DF8030069460C48FFF7C5FD92
:1005F00010210A48FFF794FE2020ADF800000320E8
:100600008DF8020014208DF8030069460448FFF7B6
:10061000B4FD20210248FFF783FE08BD000C014015
:100620000008014000BFFEE77047000070B50021E0
:1006300000230F22C47804B3154C246804F4E0644A
:10064000C4F5E064210AC1F10403CA40447804FA05
:1006500003F184781440214309010E4C0678A1551A
:10066000047804F01F050124AC4005786D11AD003D
:1006700005F1E025C5F8004109E0047804F01F0504
:100680000124AC40044D0678761145F8264070BD33
:100690000CED00E000E400E080E100E002490143ED
:1006A000024A1160704700000000FA050CED00E0FE
:1006B0007047000029B1064AD2690243044BDA614F
:1006C00004E0034AD2698243014BDA6170470000BB
:1006D0000010024029B1064A92690243044B9A6114
:1006E00004E0034A92698243014B9A61704700001B
:1006F0000010024030B500210022002400232D4DBF
:100700006D6805F00C0121B1042905D0082923D119
:1007100005E0294D056022E0274D05601FE0254DCD
:100720006D6805F47012234D6D6805F48034022560
:1007300005EB92421CB9214D554305600BE01D4D60
:100740006D6805F400351DB11C4D5543056002E090
:10075000194D5543056002E0174D056000BF00BF0D
:10076000144D6D6805F0F0010909154D6B5C0568C5
:10077000DD4045600F4D6D6805F4E061090A104DDC
:100780006B5C4568DD4085600A4D6D6805F460511D
:10079000C90A0B4D6B5C4568DD40C560054D6D6851
:1007A00005F44041890B074D6B5CC568B5FBF3F55B
:1007B000056130BD0010024000127A0000093D00C2
:1007C0000000002010000020704710B500F002F873
:1007D00010BD00000CB50020019000903348006867
:1007E00040F480303149086000BF3048006800F4B0
:1007F000003000900198401C0190009818B90198B1
:10080000B0F5A06FF1D12948006800F4003010B1B4
:100810000120009001E0002000900098012843D1C1
:100820002348006840F0100021490860084600682D
:1008300020F0030008600846006840F002000860ED
:100840001A484068194948600846406848600846A8
:10085000406840F4806048600846406820F47C109E
:1008600048600846406840F4E81048600846006860
:1008700040F08070086000BF0C48006800F0007015
:100880000028F9D00948406820F003000749486073
:100890000846406840F00200486000BF03484068D6
:1008A00000F00C000828F9D10CBD00000010024037
:1008B0000020024010B51348006840F001001149C3
:1008C000086008464068104908400E4948600846DC
:1008D00000680E4908400B4908600846006820F48B
:1008E000802008600846406820F4FE0048604FF40D
:1008F0001F008860FFF769FF4FF00060044908603F
:1009000010BD0000001002400000FFF8FFFFF6FEDF
:1009100008ED00E000B587B001210420FFF7DAFE02
:1009200001218803FFF7D6FE4FF48060ADF8180070
:1009300001208DF81A0004208DF81B0006A9244818
:10094000FFF71BFC4FF40070ADF8180001208DF884
:100950001A001C208DF81B0006A91D48FFF70DFC8E
:100960004FF4E13002900020ADF814000C20ADF8F7
:1009700012000020ADF81000ADF80E00ADF80C002C
:1009800002A9144800F056F94FF4C060FFF786FE44
:1009900025208DF8040001208DF805008DF8060053
:1009A0008DF8070001A8FFF741FE012240F2255112
:1009B000084800F01AF9012240F22661054800F0CB
:1009C00014F90121034800F0CDF807B000BD000084
:1009D000000801400038014000B587B0012108201F
:1009E000FFF778FE01218804FFF764FE4FF40060F2
:1009F000ADF8180003208DF81A0004208DF81B00B4
:100A000006A92448FFF7B9FB4FF48060ADF8180041
:100A100003208DF81A0018208DF81B0006A91D4828
:100A2000FFF7ABFB4FF4165002900020ADF8140016
:100A30000C20ADF812000020ADF81000ADF80E004B
:100A4000ADF80C0002A9144800F0F4F84FF4C060AF
:100A5000FFF724FE25208DF8040001208DF8050005
:100A60008DF806008DF8070001A8FFF7DFFD0122D1
:100A700040F22551084800F0B8F8012240F2266102
:100A8000054800F0B2F80121034800F06BF807B008
:100A900000BD0000000C01400048004010B540F2CD
:100AA0002551174800F077F8012814D140F225515C
:100AB000134800F048F8124800F028F90446022CC8
:100AC00009D100F00FFA0F490880012240F2266197
:100AD0000B4800F08AF840F22661094800F05BF804
:100AE00001280CD140F22661054800F02CF8054899
:100AF0000088054908810621034800F007F810BD69
:100B000000480040140000203000002070B5054669
:100B10000E46002408E035F8140000F093FA601C3B
:100B2000C4B2B44200D103E035F814000028F2D179
:100B300000BF70BD01F40072B2F5007F00D100BFAC
:100B4000CA430280704710B50022002340F66A14A1
:100B5000A14200D100BF0A1201249440A3B2DC4399
:100B6000048010BD21B1828942F40052828104E0E8
:100B700082894DF6FF731A40828170470246002039
:100B8000B1F5007F00D100BF13880B400BB10120ED
:100B900000E00020704770B50246002400230025C5
:100BA000002040F66A16B14200D100BFC1F34215E1
:100BB00001F01F03012606FA03F3012D02D19689E5
:100BC000334006E0022D02D1168A334001E0968AB6
:100BD00033400C12012606FA04F41688344013B18F
:100BE0000CB1012000E0002070BDF0B503460024E8
:100BF00000260025002040F66A17B94200D100BF48
:100C00001846C1F3421401F01F06012707FA06F542
:100C1000012C01D10C3004E0022C01D1103000E095
:100C200014301AB107682F43076002E00768AF432A
:100C30000760F0BD2DE9F04786B005460E4600245A
:100C4000A24600BFA1460027B08900B100BF2F46D1
:100C50002C8A4CF6FF700440F08804432C82AC8947
:100C60004EF6F3100440B088318908437189084377
:100C70000443AC81AC8A4FF6FF400440B089044382
:100C8000AC8201A8FFF736FD1F48874202D1DDF88C
:100C900010A001E0DDF80CA0A88900F4004040B1EC
:100CA0000AEBCA0000EB0A1031684900B0FBF1F80A
:100CB00007E00AEBCA0000EB0A1031688900B0FBBC
:100CC000F1F86420B8FBF0F004012009642101FB75
:100CD0001089A88900F4004040B1322000EBC9001F
:100CE000B0FBF1F000F00700044308E0322000EB15
:100CF00009106421B0FBF1F000F00F0004432C81D7
:100D000006B0BDE8F0870000003801400146888841
:100D1000C0F308007047C1F308028280704700BF2B
:100D2000FEE700000FB4054B10B503A9044A029872
:100D300000F018F810BC5DF814FB0000D30E00089A
:100D40003C00002002E008C8121F08C1002AFAD1A6
:100D500070477047002001E001C1121F002AFBD13B
:100D6000704700002DE9FF4F89B09B4604460025DF
:100D700006E025280BD05A460B999047641C6D1C41
:100D800020780028F5D10DB02846BDE8F08F002767
:100D9000B8460122474900E0074314F8013F203BD1
:100DA00002FA03F00842F7D120782E2819D114F85E
:100DB000010F47F004072A280ED06FF02F02207889
:100DC000A0F1300109290CD808EB880102EB4101A0
:100DD00000EB0108641CF2E70A98641C50F8048BCD
:100DE0000A9020780028CED0642808D0692806D040
:100DF00075281ED05A460B9990476D1C58E00A99E9
:100E00004FF00A0901C90A91002802DA40422D2157
:100E100002E0390504D52B218DF82010012103E0D3
:100E2000F90704D02021F7E78A4608AE0DE000213B
:100E3000FAE70A994FF00A0901C90A91F7E749460A
:100E4000FFF770F9303106F8011D0028F7D1ADEB3E
:100E5000060000F12009780701D44FF00108C845C9
:100E600002DDA8EB090000E000208046002706E034
:100E700008A85A46C05D0B9990476D1C7F1C5745CA
:100E8000F6DB04E030205A460B9990476D1CB8F110
:100E90000001A8F10108F5DC05E016F8010B5A463F
:100EA0000B9990476D1CB9F10001A9F10109F4DC1F
:100EB000641C65E70928010006E041F64C5100BFBB
:100EC0000A1EA1F10101FBD1021EA0F10100F4D123
:100ED000704738B504468DF8000069460320ABBE64
:100EE000204638BD70B50025002601213848FFF79F
:100EF0004AFA00BF37493648FFF724FA0028F9D0EC
:100F0000002246213248FFF7EDFA00BF324930484F
:100F1000FFF718FA0028F9D021212D48FFF7EBFA46
:100F200000BF2D49891C2A48FFF70CFA0028F8D089
:100F300001212748FFF733FA4FF44870FFF7BCFF51
:100F400000BF4FF400312248FFF735FA0028F8D1EE
:100F500001211F48FFF717FA00BF1E491C48FFF781
:100F6000F1F90028F9D0012246211948FFF7BAFA11
:100F700000BF1849491C1648FFF7E4F90028F8D0CB
:100F800000BF14493F311248FFF7DCF90028F8D0C0
:100F90000F48FFF7A3FA054600BF0E493F310C4842
:100FA000FFF7D0F90028F8D00948FFF797FA06466E
:100FB00001210748FFF7F3F900BF4FF4003104485F
:100FC000FFF7F9F90028F8D146EA0524204670BD5C
:100FD00000540040010003008200070000BF01210F
:100FE0000846FFF777FB01210F48FFF751F900BFD3
:100FF000FFF790FCFFF7F0FCFFF780FAFFF7EAFA43
:10100000FFF7D2FAFFF76EFF08490880084601880B
:1010100007A0FFF787FE012240F226610848FFF78C
:10102000E4FD00BFFEE700000002300014000020D5
:101030006775616E677A68616F203D2025642000C6
:101040000048004010B50446A1B20848FFF763FE0F
:1010500000BF40210548FFF791FD0128F9D140214B
:101060000248FFF767FD204610BD00000048004021
:10107000901000080000002040000000440D00080F
:10108000D01000084000002000040000540D0008AB
:10109000000000000102030401020304060708091E
:1010A0000204060800000000C000000002001A0050
:1010B0003C004000C100C100C10000000000000071
:1010C000FF00FF003C0000000000000000000000E6
:04000005080000ED02
:00000001FF
