:020000040800F2
:100000008004002045010008C103000865030008C2
:10001000BD030008B10100088B0A000800000000C1
:10002000000000000000000000000000850500083E
:10003000B5010008000000006D0400085D01000823
:100040005F0100085F0100085F0100085F01000810
:100050005F0100085F0100085F0100085F01000800
:100060005F0100085F0100085F0100085F010008F0
:100070005F0100085F0100085F0100085F010008E0
:100080005F0100085F0100085F0100085F010008D0
:100090005F0100085F0100085F0100085F010008C0
:1000A0005F0100085F0100085F0100085F010008B0
:1000B0005F0100085F0100085F0100085F010008A0
:1000C0005F0100085F0100085F0100085F01000890
:1000D0005F010008650700085F0100085F01000874
:1000E0005F0100085F0100085F0100085F01000870
:1000F0005F0100085F0100085F0100085F01000860
:100100005F0100085F0100085F0100085F0100084F
:100110005F0100085F0100085F0100085F0100083F
:100120005F0100085F0100085F0100085F0100082F
:10013000DFF80CD000F02AF800480047410B000817
:10014000800400200648804706480047FEE7FEE797
:10015000FEE7FEE7FEE7FEE7FEE7FEE7FEE7FEE777
:100160007106000831010008D2B201E000F8012B4D
:10017000491EFBD270470022F6E710B513460A4627
:1001800004461946FFF7F0FF204610BD064C074D08
:1001900006E0E06840F0010394E807009847103457
:1001A000AC42F6D3FFF7C8FFFC0B00081C0C00089C
:1001B00000BFFEE770472DE9F0410246002500260A
:1001C000002000230024002791F803C00CF00F0545
:1001D00091F803C00CF0100CBCF1000F03D091F8A3
:1001E00002C04CEA050591F800C0BCF1000F31D007
:1001F000146800202BE04FF0010C0CFA00F3B1F86A
:1002000000C00CEA03069E4220D183004FF00F0C81
:100210000CFA03F7BC4305FA03FC4CEA040491F81A
:1002200003C0BCF1280F06D14FF0010C0CFA00FC02
:10023000C2F814C00AE091F803C0BCF1480F05D120
:100240004FF0010C0CFA00FCC2F810C0401C08284A
:10025000D1D31460B1F800C0BCF1FF0F34DD546895
:1002600000202EE000F1080C4FF0010808FA0CF312
:10027000B1F800C00CEA03069E4221D183004FF082
:100280000F0C0CFA03F7BC4305FA03FC4CEA040418
:1002900091F803C0BCF1280F05D100F1080C08FA51
:1002A0000CF8C2F8148091F803C0BCF1480F07D1D4
:1002B00000F1080C4FF0010808FA0CF8C2F81080A1
:1002C000401C0828CED35460BDE8F081F0B50A4642
:1002D000002300240021002500F00046B6F1004F65
:1002E00002D11D4EF16901E01B4E7168C0F3034558
:1002F00083B200F44016B6F5401F08D121F07061BA
:10030000154E766826F07066134F7E6012E000F49A
:100310008016B6F5801F06D1032606FA05F4A14320
:1003200041F0706106E0460D360103FA06F6B1436E
:1003300041F0706122B1460D360103FA06F63143F1
:1003400000F00046B6F1004F02D1034EF16101E02A
:10035000014E7160F0BD0000000001404161704736
:100360000161704700BFFEE708B50121042000F0DD
:100370008FF81020ADF8000003208DF80200142043
:100380008DF8030069460C48FFF715FF10210A4855
:10039000FFF7E4FF2020ADF8000003208DF80200F5
:1003A00014208DF8030069460348FFF704FF20215D
:1003B0000148FFF7D3FF08BD0008014000BFFEE77A
:1003C000704708B54FF4C06000F046F825208DF85E
:1003D000000001208DF801008DF802008DF8030067
:1003E000684600F001F808BD70B5002100230F2217
:1003F000C47804B3154C246804F4E064C4F5E064E4
:10040000210AC1F10403CA40447804FA03F1847854
:100410001440214309010E4C0678A155047804F0DC
:100420001F050124AC4005786D11AD0005F1E025F4
:10043000C5F8004109E0047804F01F050124AC4030
:10044000044D0678761145F8264070BD0CED00E0AD
:1004500000E400E080E100E002490143024A11604B
:10046000704700000000FA050CED00E07047000046
:1004700029B1064AD2690243044BDA6104E0034A17
:10048000D2698243014BDA617047000000100240DC
:1004900029B1064A92690243044B9A6104E0034A77
:1004A00092698243014B9A6170470000001002403C
:1004B00030B500210022002400232D4D6D6805F089
:1004C0000C0121B1042905D0082923D105E0294DCB
:1004D000056022E0274D05601FE0254D6D6805F49D
:1004E0007012234D6D6805F48034022505EB9242AD
:1004F0001CB9214D554305600BE01D4D6D6805F499
:1005000000351DB11C4D5543056002E0194D5543A2
:10051000056002E0174D056000BF00BF144D6D6817
:1005200005F0F0010909154D6B5C0568DD4045607B
:100530000F4D6D6805F4E061090A104D6B5C45686C
:10054000DD4085600A4D6D6805F46051C90A0B4DA8
:100550006B5C4568DD40C560054D6D6805F4404144
:10056000890B074D6B5CC568B5FBF3F5056130BDC4
:100570000010024000127A0000093D000000002037
:1005800010000020704710B500F002F810BD000008
:100590000CB50020019000903348006840F4803092
:1005A0003149086000BF3048006800F40030009016
:1005B0000198401C0190009818B90198B0F5A06FFF
:1005C000F1D12948006800F4003010B101200090FA
:1005D00001E0002000900098012843D123480068E2
:1005E00040F01000214908600846006820F0030030
:1005F00008600846006840F0020008601A48406839
:10060000194948600846406848600846406840F418
:10061000806048600846406820F47C1048600846C6
:10062000406840F4E81048600846006840F0807078
:10063000086000BF0C48006800F000700028F9D086
:100640000948406820F003000749486008464068B0
:1006500040F00200486000BF0348406800F00C0012
:100660000828F9D10CBD0000001002400020024013
:1006700010B51348006840F00100114908600846B1
:100680004068104908400E494860084600680E4915
:1006900008400B4908600846006820F48020086084
:1006A0000846406820F4FE0048604FF41F00886050
:1006B000FFF769FF4FF000600449086010BD0000BB
:1006C000001002400000FFF8FFFFF6FE08ED00E01A
:1006D00000B585B001210420FFF7DAFE01210846AC
:1006E000FFF7D6FE01218803FFF7D2FE4FF48060AA
:1006F000ADF8100003208DF8120004208DF81300CF
:1007000004A91648FFF757FD4FF40070ADF810002C
:1007100003208DF812001C208DF8130004A90F4847
:10072000FFF749FD4FF4E13000900020ADF80C00D8
:100730000C20ADF80A000020ADF80800ADF8060066
:10074000ADF804006946064800F02AF9FFF739FEC3
:100750000121034800F0B6F805B000BD00080140D3
:100760000038014010B540F225511A4800F0C9F890
:10077000012816D140F22551164800F094F815488A
:1007800000F07AF90446232C09D013480178007848
:10079000401C114A1070114820F8114001E000F08F
:1007A000B3F940F226610B4800F0ABF801280FD1F5
:1007B00040F22661074800F076F8094801880548AC
:1007C00000F05FF9002240F22661024800F0C3F811
:1007D00010BD00000038014014000020440000203B
:1007E0001600002000B585B001210820FFF750FE5B
:1007F00001218804FFF73CFE4FF40060ADF81000C3
:1008000003208DF8120004208DF8130004A9154868
:10081000FFF7D1FC4FF48060ADF8100003208DF895
:10082000120018208DF8130004A90E48FFF7C3FC2E
:100830004FF4165000900020ADF80C000C20ADF8DD
:100840000A000020ADF80800ADF80600ADF804007D
:100850006946054800F0A4F80121034800F032F889
:1008600005B000BD000C01400048004070B50546D1
:100870000E46002408E035F8140000F091F9601CE1
:10088000C4B2B44200D103E035F814000028F2D11C
:1008900000BF70BD01F40072B2F5007F00D100BF4F
:1008A000CA430280704710B50022002340F66A1444
:1008B000A14200D100BF0A1201249440A3B2DC433C
:1008C000048010BD21B1828942F40052828104E08B
:1008D00082894DF6FF731A408281704710B5FFF789
:1008E000F7FEFFF77FFF10BD02460020B1F5007F45
:1008F00000D100BF13880B400BB1012000E00020A5
:10090000704770B50246002400230025002040F601
:100910006A16B14200D100BFC1F3421501F01F03B6
:10092000012606FA03F3012D02D19689334006E031
:10093000022D02D1168A334001E0968A33400C1210
:10094000012606FA04F41688344013B10CB10120D4
:1009500000E0002070BDF0B503460024002600250D
:10096000002040F66A17B94200D100BF1846C1F313
:10097000421401F01F06012707FA06F5012C01D1E8
:100980000C3004E0022C01D1103000E014301AB118
:1009900007682F43076002E00768AF430760F0BDB8
:1009A0002DE9F04786B005460E460024A24600BF5A
:1009B000A1460027B08900B100BF2F462C8A4CF613
:1009C000FF700440F08804432C82AC894EF6F3108B
:1009D0000440B08831890843718908430443AC81DD
:1009E000AC8A4FF6FF400440B0890443AC8201A8B2
:1009F000FFF75EFD1F48874202D1DDF810A001E03D
:100A0000DDF80CA0A88900F4004040B10AEBCA0050
:100A100000EB0A1031684900B0FBF1F807E00AEB7F
:100A2000CA0000EB0A1031688900B0FBF1F86420BD
:100A3000B8FBF0F004012009642101FB1089A889AA
:100A400000F4004040B1322000EBC900B0FBF1F0EF
:100A500000F00700044308E0322000EB0910642195
:100A6000B0FBF1F000F00F0004432C8106B0BDE8AC
:100A7000F08700000038014001468888C0F3080074
:100A80007047C1F308028280704700BFFEE702E0B2
:100A900008C8121F08C1002AFAD170477047002009
:100AA00001E001C1121F002AFBD1704710B50446B6
:100AB00010210C48FFF754FC20210A48FFF750FC96
:100AC000C82000F015F8302C04D10A210648FFF7A1
:100AD000CDFE05E0312C03D106210448FFF7C6FE08
:100AE00010BD000000080140180000202C0000206C
:100AF00007E0401E42F2107101E04A1E91B2002947
:100B0000FBDC0028F5D1704710B50B480478302C79
:100B100001D0312C03D12046FFF7C8FF03E0322C6F
:100B200001D100F053F83C210348FFF724FB0020DB
:100B30000249087010BD000044000020140000208D
:100B400000BF01210846FFF7A3FC01211048FFF771
:100B5000BDFB00BFFFF7C2FE012240F225510D4848
:100B6000FFF7F9FEFFF700FC10E020210A48FFF72D
:100B7000BBFE01280AD10848FFF77EFF074908801D
:100B8000012240F226610348FFF7E5FEEDE7000091
:100B900000023000003801400048004016000020EC
:100BA00010B50446A1B20848FFF76BFF00BF402113
:100BB0000548FFF799FE0128F9D140210248FFF7C7
:100BC00069FE204610BD00000048004010B510210D
:100BD0000848FFF7C3FB20210648FFF7BFFBC820EA
:100BE000FFF786FF0220044908810C210248FFF725
:100BF0003DFE10BD00080140380000201C0C00081C
:100C000000000020440000008E0A0008600C00086C
:100C1000440000203C0400009E0A00080000000080
:100C2000010203040102030406070809020406087E
:100C300000000000C000000001001A003C0040005D
:100C40000000000000000000C100C100C100000061
:100C500000000000FF00FF003C000000000000005A
:0400000508000131BD
:00000001FF
